:020000040000FA
:08000000803102288731FD2F39
:100F1200603051018D008F019101063093009201E2
:100F220008004F0196019701980199019A019B01CE
:100F32009C019D0108008731922787318731A627BE
:100F4200873187318927873108004001980199014B
:100F52009A011F309200F0309300FF309400FF306E
:100F62007E01CE00F030C3001730B800C401B901D1
:100F7200CF01BA01C501D0013730BB00F030C60045
:100F8200FF30D1003F30BC00F030C700FF30D2004C
:100F9200080087319C27873103104001981E0314F3
:100FA2000318D42FD72F40019816D92F4001981239
:100FB2000030F3000030F2006130F100A830F000A0
:100FC200FF30F007FF30F13DFF30F23DFF30F33DDF
:100FD200F31BFA2F7308031DF92F7208031DF92F53
:100FE2007108031DF92F013070020318F92FFA2F2F
:0E0FF200E12FCD2F8031022840018731CA2F18
:020000040001F9
:0A000E00EC3FFF3F9F3FFF3FFF3F25
:00000001FF
