:020000041000EA
:10100000004000207B12001029120010F112001085
:101010002D1200102F1200103112001000000000DD
:10102000000000000000000000000000331200106B
:1010300035120010000000003712001039120010A5
:101040003B1200103D1200103F1200104112001020
:1010500043120010451200104712001049120010F0
:101060004B1200104D1200104F12001051120010C0
:101070005312001055120010571200105912001090
:101080005B1200105D1200105F1200106112001060
:101090006312001065120010671200106912001030
:1010A0006B1200106D1200106F1200107112001000
:1010B00073120010751200107712001079120010D0
:1010C00082B001900A006B4603331A706B460333FB
:1010D0001B78034A9A40019B5A60C04602B0704791
:0410E000010001000A
:1010E40000B583B00D4B80220021180000F00CF9EC
:1010F4000A4B00211800FFF7E1FF094B1B685A1C3B
:10110400074B1A60FA235B02019302E0019B013B47
:101114000193019B002BF9DCEAE7C046000104407F
:041124004000002067
:1011280082B00190344B1B68002B0EDA324B1A68E0
:10113800314B802109060A431A60019B18331A684B
:10114800019B183302321A6054E02C4B1A682C4B5E
:101158001A622C4B1B78D9B2294B242299542A4B5A
:101168001B78DBB21A00264B9A62284B1A68244B6C
:10117800DA62274B1B889AB2214B1A861E4B1A68D3
:101188001F4B5A63234B1A681D4B9A63224B1A68EC
:101198001B4BDA63214B00221A60C0461F4B1B68A9
:1011A800002BFBD0019B1A68154B1A60019B5A68EB
:1011B800134B5A60019B9A68114B9A60019BDA683D
:1011C8000F4BDA60019B1A690D4B1A61019B5A6932
:1011D8000B4B5A61019B9A69094B9A61019BDA6929
:1011E800074BDA610D4B00221A60C0460B4B1B6897
:1011F800002BFBD002B070472CED00E024ED00E09E
:101208000000002028ED00E029ED00E038ED00E0C6
:101218002AED00E030ED00E03CED00E04400002065
:10122800FEE7FEE7FEE7FEE7FEE7FEE7FEE7FEE78E
:10123800FEE7FEE7FEE7FEE7FEE7FEE7FEE7FEE77E
:10124800FEE7FEE7FEE7FEE7FEE7FEE7FEE7FEE76E
:10125800FEE7FEE7FEE7FEE7FEE7FEE7FEE7FEE75E
:10126800FEE7FEE7FEE7FEE7FEE7FEE7FEE7FEE74E
:10127800FEE70348854600F001F803E070470000E8
:041288000040002002
:10128C0011488546114C20680434004201D0804737
:10129C00F9E70F480F49091A082903DB00220260FD
:1012AC00043001600C480D49884205D002680430B6
:1012BC0003B4904703BCF7E700208646EC460020B9
:1012CC000021074A9047FEE700400020AC130010B5
:1012DC004800002048040020AC130010AC13001090
:0412EC00E5100010F9
:1012F00004207146084202D1EFF3088001E0EFF3C9
:0C13000009800149084700002911001075
:10130C0082B00190080011006B460333021C1A7066
:10131C006B4602330A1C1A706B4603331B789B080E
:10132C00DBB21A00019B04329200D3586A46033296
:10133C00127803210A40D200F82191400A00D243CE
:10134C006946033109788908C9B208001A401100AE
:10135C00019B021D9200D1506B4603331B789B08F6
:10136C00DBB21A00019B04329200D2586B46023356
:10137C0019786B4603331B7803200340DB0099403C
:10138C000B006946033109788908C9B208001A4371
:10139C001100019B021D9200D150C04602B0704753
:1013AC00BD130010000000204800000000000000E9
:1013BC00206861680834094204D0002202700130B0
:0613CC000139FBD170475E
:040000051000127B5A
:00000001FF
