:020000041000EA
:1010000020050020191000100000000099100010A9
:1010100000040100000000801149124A124B00F048
:1010200018F8124880471249124A134B00F011F881
:101030001249134A134B00F00CF81349134A0020CD
:10104000521A02DD043A8850FCDC114880471148EE
:1010500080479B1A03DD043BC858D050FBDC704727
:10106000C41500100C0000201C0100209D10001071
:10107000D41600102005002020050020D4160010F2
:101080002005002020050020200500202805002044
:101090006915001009140010FEE7000080B500AFCC
:1010A00000F004F800F01CF8BD4680BD80B500AF2C
:1010B0000A490A4B1B899BB28022520113439BB2FF
:1010C0000B810649054A4823D35A9BB2802212015C
:1010D00013439AB24823CA52BD4680BD0000054062
:1010E00080B500AF094BC0225A62094B094A1A6009
:1010F000C046074B1A688023DB051340F9D1034B28
:10110000C3225A6200F008F8BD4680BD00000140CD
:10111000000301400001F13F80B500AF124B1A6897
:10112000FF231B0213401A0A104B1A600E4B1B6858
:10113000FF221A400E4B1A600C4B1B68002B0ED07E
:101140000A4B1B681A020A4B1B68D3180948191C62
:1011500000F078F9031C5A00074B1A6002E0064BB6
:10116000064A1A60BD4680BD0003014020050020EC
:1011700024050020000024F4FC3F00200048E80182
:1011800090B585B000AFF8607A600B23FB180A1C9D
:101190001A700B23FB181B789B08DBB2181C0B235F
:1011A000FB181B789B08DBB21A1CFB680432920008
:1011B000D3580B22BA18127803210A40D200111C0E
:1011C000F8228A40D2431A40111CFB68021D92008B
:1011D000D150FB685B6F0B22BA1812785200111CB9
:1011E00003228A40D2431A40FB685A670B23FB183C
:1011F0001B78DB08DBB2181C0B23FB181B78DB0801
:10120000DBB21A1CFB6810329200D3580B22BA18BA
:10121000127807210A409200111C04228A40D2430E
:101220001A40111CFB68021C10329200D1500B2393
:10123000FB181B78DB08DBB2181C0B23FB181B7890
:10124000DB08DBB21A1CFB6810329200D2587B68B4
:101250005B781C1C0B23FB181B7807210B409B00A1
:101260009C40231C1A43111CFB68021C1032920084
:10127000D150FB68204A93420CD1FB681B6E0B22B5
:10128000BA181278012191400A1CD2431A40FB6817
:101290001A660DE07B681B78DBB25BB2002B07DAC5
:1012A0007B685A680B23FB181B789A40FB685A60CE
:1012B0000B23FB181B789B08DBB2181C0B23FB18B5
:1012C0001B789B08DBB21A1CFB6804329200D258D0
:1012D0007B681B781C1C0B23FB181B7803210B401D
:1012E000DB009C40231C1A43111CFB68021D92006A
:1012F000D150BD4605B090BD0002044080B582B01B
:1013000000AF7860081C111CFB1C021C1A70BB1C6F
:101310000A1C1A707B685B6FFA1C12785200111C51
:1013200003228A40D2431A407B685A677B685A6F0F
:10133000BB1C1B78F91C097849008B401A437B6859
:101340005A67BD4602B080BD80B500AFBD4680BDC6
:1013500080B582B000AF78607B6819687B681A7BC3
:101360007B680433081C111C1A1CFFF709FF7B68FB
:1013700019687B681A7B7B685B7B081C111C1A1C34
:10138000FFF7BCFF0023181CBD4602B080BDC0465D
:1013900090B583B000AFFB1D00221A70FB1D1B78B7
:1013A000002B06D1FC1D064B181CFFF7D1FF031CB8
:1013B0002370FB1D1B78181CBD4603B090BDC046B2
:1013C000B415001080B582B000AF78600A1CFB1C19
:1013D0001A70FB1C1B78034A9A407B685A60BD4612
:1013E00002B080BD0100010080B582B000AF78601E
:1013F0007B681A687B681B7B101C191CFFF7E2FFD7
:10140000BD4602B080BDC04690B583B000AFFC1CA5
:10141000FFF7BEFF031C2370FB1C1B78002B00D0C2
:10142000FEE7074B181CFFF7DFFFFA235B027B6028
:1014300002E07B68013B7B607B68002BF9DCF0E716
:10144000B4150010002243088B4274D303098B4269
:101450005FD3030A8B4244D3030B8B4228D3030C84
:101460008B420DD3FF22090212BA030C8B4202D326
:101470001212090265D0030B8B4219D300E0090A4E
:10148000C30B8B4201D3CB03C01A5241830B8B4257
:1014900001D38B03C01A5241430B8B4201D34B0340
:1014A000C01A5241030B8B4201D30B03C01A5241A5
:1014B000C30A8B4201D3CB02C01A5241830A8B422A
:1014C00001D38B02C01A5241430A8B4201D34B0213
:1014D000C01A5241030A8B4201D30B02C01A524177
:1014E000CDD2C3098B4201D3CB01C01A524183092B
:1014F0008B4201D38B01C01A524143098B4201D365
:101500004B01C01A524103098B4201D30B01C01A8F
:101510005241C3088B4201D3CB00C01A5241830809
:101520008B4201D38B00C01A524143088B4201D336
:101530004B00C01A5241411A00D201465241104696
:101540007047FFE701B5002000F00CF802BDC0466F
:101550000029F7D003B5FFF775FF0EBC4243891A87
:101560001847C0467047C0460E4B70B500251E1C7C
:101570000D4CE41AA410A54204D0AB00F3589847D0
:101580000135F8E7FFF7E0FE084B00251E1C084C6C
:10159000E41AA410A54204D0AB00F35898470135D3
:1015A000F8E770BD20050020200500202005002060
:1015B0002005002000010440800000000000010020
:0415C0000000000027
:1015C4002C488746000000000000000000000000D6
:1015D4000000000000000000000000000000000007
:1015E4002548874600000000000000002348874685
:1015F4002348874623488746234887462348874607
:1016040023488746234887462348874623488746F6
:10161400000000000000000021488746214887465A
:1016240021488746214887462148874621488746DE
:10163400214887462148874600000000000000003A
:1016440000000000000000001D4887461D48874632
:101654001D4887461D488746000000000000000022
:101664000000000000000000000000000000000076
:10167400000000009910001099100010991000103B
:101684009910001099100010991000109910001072
:101694009910001099100010991000109910001062
:1016A4009910001099100010991000109910001052
:1016B4009910001099100010991000109910001042
:1016C4009910001099100010991000109910001032
:0400000510001019BE
:00000001FF
