:020000040C00EE
:100000000008001001020008B1020008B102000857
:10001000B1020008B1020008B102000800000000AF
:10002000000000000000000000000000B102000815
:10003000B102000800000000B1020008B10200088F
:10004000B1020008B1020008B1020008B1020008C4
:10005000B1020008B1020008B1020008B1020008B4
:10006000B1020008000000000000000000000000D5
:10007000B102000800000000B1020008B10200084F
:10008000B1020008B1020008B1020008B102000884
:10009000B1020008B1020008B1020008B102000874
:1000A000B1020008B1020008B1020008B102000864
:1000B000B1020008B1020008B1020008B102000854
:1000C000B1020008B1020008B1020008B102000844
:1000D000B1020008B1020008B1020008B102000834
:1000E000B1020008B1020008B1020008B102000824
:1000F000B1020008B1020008B1020008B102000814
:10010000B1020008B1020008B1020008B102000803
:10011000B1020008B1020008B1020008B1020008F3
:10012000B1020008B1020008B1020008B1020008E3
:10013000B1020008B1020008B1020008B1020008D3
:10014000B1020008B1020008B1020008B1020008C3
:10015000B1020008B1020008B1020008B1020008B3
:10016000000000000000000000000000000000008F
:10017000B1020008B1020008B1020008B102000893
:10018000B1020008B1020008B1020008B102000883
:10019000B1020008B1020008B1020008B102000873
:1001A000B1020008B1020008B1020008B102000863
:1001B000B1020008B1020008B1020008B102000853
:1001C000B1020008B1020008B1020008B102000843
:1001D000B1020008B1020008B102000800000000EE
:1001E000B10200089D080008B1020008B102000831
:1001F000B102000800000000B10200080000000089
:10020000DFF88CD023488047234C244DAC4209DAD8
:1002100021686268A368043BA2BFC858D050FAE7BF
:100220000C34F3E71E4B1F4CA34208DA19685A68D6
:100230000020043AA4BF8850FBE70833F4E71A48CB
:1002400080471A4880470000200E000C0000002064
:1002500000000000200E000C000000300000000034
:10026000200E000C0008001000000000200E000C02
:100270000008001000000000000000200400000042
:100280000000003000000000000800100000000026
:10029000000800104905000848020008780200081C
:1002A0007802000890020008A5090008B9080008B3
:1002B000FEE7000082B000230193019B984206D91B
:1002C00000BF019B01330193019B8342F8D302B02D
:1002D000704700BF72B60D4B0D4A9A60BFF34F8F47
:1002E00062B6D3F8882042F47002C3F888205A69B5
:1002F00022F008025A61074941F214028B5823F098
:100300000F0343F003038B50704700BF00ED00E084
:10031000000000080010005800487047001BB7009C
:1003200010B51E4BDB6813F4803F27D01C4BDB68F5
:1003300013F0010F02D1FFF7EFFF00E01948184B4F
:100340001B6813F0040F11D0154A946893689168E4
:10035000C1F30642C4F30364611C02FB0111B0FB4C
:10036000F1F0C3F3062303FB000208E00C4B9B688B
:1003700003F07F030133B0FBF3F200E0094A0749C1
:10038000C868C0B20130B2FBF0F3086900F00100A8
:100390000130B3FBF0F0044B186010BD0046005074
:1003A0001047005000366E01C0FF002010B55B4BB7
:1003B0001B6813F0010F08D1584A536843F001033A
:1003C0005360136813F0010FFBD0554B1B6813F4F7
:1003D000007F08D0524A936843F40073936041F65B
:1003E0004C50FFF767FF4F4C636843F40023636092
:1003F00040F6C410FFF75EFF636823F4803323F0F8
:1004000002036360484B5B6813F0300F21D0103C4F
:10041000636823F4702323F030036360FFF77CFFED
:100420006268424BA3FB00131B0D013B42EA0343EE
:1004300063603C4BDA6822F00102DA605A6822F409
:1004400000325A601A46136803F46073B3F5607F94
:10045000F9D1344B5A6842F001025A605A6842F0AE
:1004600010025A60324A9A605A6842F040025A605A
:100470005A6822F010025A605A6842F480225A6088
:100480001A46136813F0040FFBD0264A536823F072
:1004900001035360136813F0010FFBD1254BDA6899
:1004A00042F48032DA6000225A611A611A625A629A
:1004B000DA6103229A6103F588735A6822F04002D8
:1004C0005A601D4A9A6040F6B830FFF7F3FE154AAD
:1004D000136813F0040FFBD0184A124B9A6041F2D4
:1004E0009410FFF7E7FE0F4A136813F0040FFBD0D8
:1004F000134A0C4B9A6041F27070FFF7DBFE094A19
:10050000136813F0040FFBD005220E4BDA600022B3
:1005100003F594635A60FFF703FF10BD00420050DB
:100520000044005010470050004700506BCA5F6BFA
:10053000004F130100460050004F0701004F040117
:10054000004F03016041005010B54FF00053044CC0
:100550000FCB84E80F00FFF7BDFEFFF727FF10BDAC
:10056000C4FF0020030F03EB430320F07040024A56
:1005700042F82300704700BF1444005020F070423E
:10058000000F00EB4000044B53F820301A4214BF18
:1005900001200020704700BF0C44005010B50446F5
:1005A000054B98420CBF05480548FFF7DBFF0123C8
:1005B000C4F8983310BD00BF004001501000002067
:1005C0002000002008B5FFF7E9FF08BD10B504467C
:1005D000084B98420CBF08480848FFF7CFFF80F04F
:1005E0000100C0B220B1D4F89803003018BF012038
:1005F00010BD00BF0040015010000020200000206E
:1006000030B4144B984212D1A3F577439C688D0007
:100610000F20A84024EA0000AA4002439A6018690B
:1006200001F0070101228A4002431A610FE00A4BE0
:10063000DC688D000F20A84024EA0000AA40024395
:10064000DA6018694FF480728A4002431A6130BC44
:10065000704700BF004001500049005010B440F204
:1006600001148C40002322FA03F111F0010F03D092
:100670005900C43140F821400133052BF3D15DF816
:10068000044B704710B401248C40002322FA03F17C
:1006900011F0010F03D05900CE3140F82140013351
:1006A000052BF3D15DF8044B704700BFF8B5054644
:1006B0000E461446FFF78AFF002800F0C880D5F8E0
:1006C000A033F34013F0010F40F0C380616858225B
:1006D00002FB06F2AB18A950A2689A60E2681A61A0
:1006E000218BD96122689A61E27E42F440621A64E9
:1006F0005A4B9D420CD1012E0AD82269582303FB84
:1007000006F303F1A04303F5A0339A6462691A6506
:10071000238CF3B9A37803F05003102B19D14F4B5E
:100720009D4294F822100CBF01F0070101F0030173
:1007300094F82220582707FB06577B6C43EAC12315
:100740007B6428461209FFF75BFF3B6C23F4806350
:100750003B64A38BE3B9A37803F06003202B17D18C
:100760003E4B9D42A17F0CBF01F0070101F0030148
:10077000A27F582707FB06577B6C43EAC1137B64B3
:1007800028461209FFF73CFF3B6C23F400633B64EF
:10079000284631461F22FFF775FFA37E013B072B3A
:1007A00059D8DFE803F0040D161F28353E4B5823B7
:1007B00003FB06552B6C43F000432B640020F8BD6F
:1007C000582303FB06552B6C43F080432B64002019
:1007D000F8BD582303FB06552B6C43F040432B64B4
:1007E0000020F8BD582303FB0655AB6943F00063B6
:1007F000AB610020F8BD582303FB06552B6C43F07A
:1008000080432B64AB6943F00063AB610020F8BD0B
:10081000582303FB0655AB6943F08053AB610020BE
:10082000F8BD582303FB06552B6C43F000432B64A3
:10083000AB6943F08053AB610020F8BD582303FB44
:100840000655AB6943F0C053AB610020F8BD0120F1
:10085000F8BD0220F8BD0020F8BD00BF00400150E7
:10086000036842689A60036882689A610020704752
:1008700010B401F0FC031844046901F00301C9003D
:10088000F8238B4024EA0303036103698A4013437E
:1008900003615DF8044B7047704700BF08B5012243
:1008A000034B1A70034802210A46FFF7EBFE08BD0E
:1008B000000000200040015010B52F48092180227F
:1008C000FFF7D6FF2D4C2046FFF77CFE2046022185
:1008D0002B4AFFF7EBFE204602210A46FFF7BEFE39
:1008E000284BDB68C3F30223C3F10701062928BFA5
:1008F00006219A1D062A8CBF03F1FF320022012334
:100900008B40013B03F03F0393409B00DBB21E4A48
:1009100082F869334FF40073D3601C48FFF7A0FFDF
:100920001B4B1C4A5A611C4959611A614FF4807271
:100930001A619A6842F010029A6040F204420F4B2A
:10094000C3F8A023154B1A7812F0FF0FFBD0104B01
:10095000DB6813F0010F04D14FF00222064B5A60FE
:1009600009E005484FF002210D4A4160134600BFDF
:10097000013BFCD1F9E7FEE700830248004001504B
:10098000F00D000800ED00E000E100E0140E0008AA
:1009900020000250FECACEFAD99CF6990000002031
:1009A000FFFF1F0070B50E4B0E4CE41AA41000257B
:1009B0001E46A54204D056F8253098470135F8E781
:1009C000FFF76AFF084C094BE41AA41000251E46E5
:1009D000A54204D056F8253098470135F8E770BD98
:1009E0000000002000000020000000200000002087
:1009F0002505EC54B2357144F986ED6E76EEB910EA
:100A0000558F5C9CA0F0C844D3415C9FF38E6C4A28
:100A1000C23AB43CA46C9E9AA0D596A295EFE22B64
:100A200063B9017529AD06291EDF95E6E8C9E3A182
:100A3000C8397390A7C705F2184DDED6D5D7A9B629
:100A4000638FF9796E7A7F4605B0B5114278B9693E
:100A50009C12B9D1261EBADDEF21E442E7DDBEA823
:100A6000905D99334DD139C6EDE558AC17FE715DF7
:100A700008DF1CEE810D5E3DA74FB0AC83CED47F66
:100A8000525DE86B5A1AEB02DC89CC249283F13771
:100A9000E786C8564CCC8B9CDA7534BB00F824042E
:100AA000F4144A40A4B9D741B4D2978FC528D916B7
:100AB0008590052C2DCFBAC1FE82A5E37C87ED4839
:100AC000BB6BBEC2EFC7833FCBE92C75CA011E0DBD
:100AD00082DFEC026BF8453D3D2059B3E6601A61B8
:100AE00079B8E33F391BE8343019765BA5C19E869F
:100AF0005D0058BFF5209C8BA3228D05249EAB1171
:100B0000124753CCB4FE68A222DEA74E1404DC3494
:100B10009DCB30F45B906990E087943ABA110C93C6
:100B2000F36F9D5D265B3B9C01A599D02EC75FE5C9
:100B3000094EC57667392411D22B953BFCF2170676
:100B400099FA142A25C5B142A4F4EEF9C3F190A094
:100B5000BD8024FA24798E5499CE2326F4994254E8
:100B60000EDA02B9305F7271FB6A01521764389570
:100B7000AB99D09A2DE5F612C7048D61A3D8CCD4D9
:100B80006317AB016D8393880E272D3ADF0D9C9977
:100B9000BE62ED06E58D7F887538AA20437F63220B
:100BA000219B41855D85542E93D4D0C60CF0E83846
:100BB0005138462F180093A5A8CE08C18AAE209DB3
:100BC0003728A44E94AEB73D9B4F36DA6A506F2556
:100BD000DE3A277893CEC36A58A6790B9893E16ED4
:100BE000A357C1A37B18900F97674BEB404C83AF83
:100BF000BBBCD6CB69BC03C1CC652E5F0BAD2A470D
:100C000051129106912D698709CA9E9950BFE1A89A
:100C1000472564687E4F8B0B481873B0A387D74E67
:100C20002E21AFA93858108DA3C0A1D466DE03DDF4
:100C3000E7CC7556A5990A2B71302A4CF3D43506AA
:100C400068A4EBD5E7CCB2772F72B2B9FAFC57049F
:100C500041D663C9CAAF01245EB1295FD1976A61E9
:100C6000A45F4182A8E4C0E7E238712D20F1DFA43F
:100C700023A40113B0A9B3EAFCCE2D438B70BDDAD7
:100C800029D12B83A15CFAD76CF77C601DA29E8DC5
:100C90009B32BE2DB1E06F7D5012F2CF839A44EEAD
:100CA000664CB870252788990AF58724020BDD1158
:100CB000B457C4667D2210A36F42EFF0161C7A551C
:100CC0004DE3422BCBF3ADB20009431111BC68A731
:100CD000874836FB3C6F0B15DDCE603D84E7547CC6
:100CE000AC29ACB16BA20BC95C77D7DCF87F9EFD59
:100CF000D197CDD921F9584890DAFE089EDE7F2F92
:100D0000C923530335923E838537187E177DE28DC4
:100D100061C3E635A83BD0EAB3D12732DFBEA013CA
:100D2000DD1E7CF7F3C1BD613BB37052AEC886CD0A
:100D3000509DEDF47D765A36BA8C040BCFE3718565
:100D4000761D7CBE8F747D67C464C690C6892B4AAD
:100D50003183749089E56A7DD14687FDDA414B5035
:100D6000D2B9984A193E07D74950AEF85050F2BD53
:100D700035500B667241FA0F3D27CF4934F2753C6E
:100D8000A7C29F19A9734A11BE886A44317939CD27
:100D90002BC39A4CEBD8D71FA12B673993ED52E3A5
:100DA0009F02CABAAE5B8BD8B5ECA1E883F72DBF22
:100DB000FC7DC7DDA152A15E1CC18BE0C6CD3E9279
:100DC000EFE9A7759772ABAB51C9DB7E2A6FCE38BE
:100DD000A892836EB66D57880ED4244161D18AD50E
:100DE00029DC67D60B31BBC373ED6DB42D62FBFFFD
:100DF00025910000F00900082000025000000000CA
:100E000000000000000000000001000000080000D9
:100E1000000400002000025000070000FFFFFFFF59
:0400000508000201EC
:00000001FF
