:100000000040001001020000390200003D02000023
:1000100000000000000000000000000000000000E0
:10002000000000000000000000000000410200008D
:10003000000000000000000045020000490200002E
:100040004D0200005102000055020000590200005C
:100050005D0200006102000065020000690200000C
:100060006D020000710200007502000079020000BC
:100070007D0200008102000085020000890200006C
:100080008D0200009102000095020000990200001C
:100090009D020000A1020000A5020000A9020000CC
:1000A000AD020000B1020000B5020000B90200007C
:1000B000BD020000C1020000C5020000C90200002C
:1001400010B5064C2378002B07D1054B002B02D0AD
:10015000044800E000BF0123237010BD68000010B8
:1001600000000000281A0000044B10B5002B03D03B
:100170000349044800E000BF10BDC0460000000075
:100180006C000010281A0000164B002B00D1144BF5
:100190009D46402292029A1A924600218B460F46B3
:1001A0001348144A121A00F0A3F90F4B002B00D089
:1001B00098470E4B002B00D09847002000210400E8
:1001C0000D000D48002802D00C4800E000BF00F0F0
:1001D0006BF92000290000F0A6F900F04FF9C046A5
:1001E00000000800004000100000000000000000B7
:1001F00068000010A00000100000000000000000D7
:1002000072B6074880470749074A084B9B1A03DD27
:10021000043BC858D050FBDC62B60548804700005C
:10022000E9070000501A00000000001068000010EC
:100230008901000025480047254800472548004718
:1002400025480047254800472548004725480047DE
:1002500025480047254800472548004725480047CE
:1002600025480047254800472548004725480047BE
:1002700025480047254800472548004725480047AE
:10028000254800472548004725480047254800479E
:10029000254800472548004725480047254800478E
:1002A000254800472548004725480047254800477E
:1002B000254800472548004725480047254800476E
:1002C00025480047254800472548004735020000DB
:1002D000390200003D02000041020000450200001A
:1002E000490200003502000035020000350200001E
:1002F0003502000035020000350200003502000022
:100300003502000035020000350200003502000011
:100310003502000035020000350200003502000001
:1003200035020000350200003502000035020000F1
:1003300035020000350200003502000035020000E1
:1003400035020000350200003502000035020000D1
:1003500035020000350200003502000035020000C1
:1003600035020000002243088B4274D303098B42FC
:100370005FD3030A8B4244D3030B8B4228D3030C75
:100380008B420DD3FF22090212BA030C8B4202D317
:100390001212090265D0030B8B4219D300E0090A3F
:1003A000C30B8B4201D3CB03C01A5241830B8B4248
:1003B00001D38B03C01A5241430B8B4201D34B0331
:1003C000C01A5241030B8B4201D30B03C01A524196
:1003D000C30A8B4201D3CB02C01A5241830A8B421B
:1003E00001D38B02C01A5241430A8B4201D34B0204
:1003F000C01A5241030A8B4201D30B02C01A524168
:10040000CDD2C3098B4201D3CB01C01A524183091B
:100410008B4201D38B01C01A524143098B4201D355
:100420004B01C01A524103098B4201D30B01C01A80
:100430005241C3088B4201D3CB00C01A52418308FA
:100440008B4201D38B00C01A524143088B4201D327
:100450004B00C01A5241411A00D201465241104687
:100460007047FFE701B5002000F006F802BDC04666
:100470000029F7D076E770477047C046084B10B5A3
:100480000400002B02D0002100E000BF054B1868DB
:10049000836A002B00D09847200001F001FAC04683
:1004A000000000000019000070B500260C4D0D4C36
:1004B000641BA410A64209D1002601F0B5FA0A4D2A
:1004C0000A4C641BA410A64205D170BDB300EB58C2
:1004D00098470136EEE7B300EB5898470136F2E74C
:1004E000481A0000481A0000481A00004C1A000080
:1004F00003001218934200D1704719700133F9E7D5
:1005000080B584B000AFF860B9607A60FB68BA6803
:100510008C2109018C46624492007968D150C04612
:10052000BD4604B080BD80B582B000AF3B00012263
:100530001A703B0000225A70A0231B0601211800EC
:1005400000F044F83A00A02318061300002201210D
:1005500000F066F8FA23DB017B6002E07B68013B78
:100560007B607B68002BF9DCA0231B0601220121A4
:100570001800FFF7C5FFEDE780B582B000AF0200BD
:10058000BB1D1A80BB1D1B881B0A9BB21A00FF23D0
:1005900013400D4A944663441968BB1D1B88FF2213
:1005A000134001229A40BB1D1B881B0A9BB21800F6
:1005B000FF2303400448844663440A431A60C0464C
:1005C000BD4602B080BDC0468080044080B582B088
:1005D00000AF786039603B68012B05D90B4B0C4AA2
:1005E0000C482E2100F01CF90B4B3A685200D35AEC
:1005F0001800FFF7C1FF094B3A689200D358180062
:1006000000F0E2F8C046BD4602B080BDA41800006C
:1006100010190000C8180000041900000819000093
:1006200080B584B000AFF860B9607A603B603B6829
:100630001B78002B17D1FB68BA68802109018C4612
:1006400062449200D35801217A6891400A00D24353
:100650001A401100FB68BA68802000018446624499
:100660009200D15032E03B685B78002B0CD1012224
:100670007B689A401100FB68BA688A2000018446B2
:1006800062449200D1500BE001227B689A40110035
:10069000FB68BA6888200001844662449200D15009
:1006A000FB68BA68802109018C4662449200D258E6
:1006B00001217B6899400B001A431100FB68BA685E
:1006C00080200001844662449200D150C046BD465D
:1006D00004B080BD80B586B000AF78607B681B0C2D
:1006E0007B617B681B041B0C3B6101223B699A40C8
:1006F0001300FB603B691F2B05D9114B114A1248AF
:100700003C2100F08DF87B69002B08D10F4A88232B
:10071000D358FA68D2430D49134088228B507B6925
:10072000012B08D1094A8C23D358FA68D2430749D0
:1007300013408C228B50C046BD4606B080BDC046DB
:10074000DC18000020190000EC18000000800440B4
:1007500080B586B000AF78607B681B0C7B617B68DE
:100760001B041B0C3B6101223B699A401300FB6098
:100770003B691F2B05D9104B104A1148522100F03C
:100780004FF87B69002B07D10E4A8823D2580D49B8
:10079000FB68134388228B507B69012B07D1094AE0
:1007A0008C23D2580749FB6813438C228B50C046D8
:1007B000BD4606B080BDC046DC1800003C190000F4
:1007C000EC1800000080044080B582B000AF786073
:1007D0007B681800FFF77EFF7B681800FFF7B8FF03
:1007E000C046BD4602B080BD80B500AF054B064A8D
:1007F0009A60064B064A1A6000F00CF8C046BD46E7
:1008000080BDC04600ED00E0000000006400001064
:10081000001BB70080B500AFC046BD4680BD0000DC
:1008200030B51C00094B05001B6885B0D868084B23
:10083000002A01D1074B1A000292019300912B006C
:100840002200054900F00AF800F074FC00000010D6
:100850005719000092190000641900000EB403B586
:10086000010003AB044804CB0068019300F0D6F804
:1008700002B008BC03B018470000001070B50500B6
:10088000002910D00C1F2368002B00DAE418280080
:1008900000F0A0FE1D4A1368002B05D163601460B0
:1008A000280000F09FFE70BDA34209D9216860189E
:1008B0008342F3D118685B6841182160EEE71300AA
:1008C0005A68002A01D0A242F9D919685818A042E2
:1008D0000BD120680918581819608242E0D11068BD
:1008E0005268411819605A60DAE7A04202D90C2315
:1008F0002B60D5E721686018824203D110685268E6
:100900004118216062605C60CAE7C0468400001044
:10091000F8B50323CD1C9D43083506000C2D1FD2CE
:100920000C25A9421ED8300000F054FE25490A6863
:100930001400002C1AD1244F3B68002B04D1210055
:10094000300000F019FB38602900300000F014FB83
:10095000431C2AD10C233000336000F043FE03E037
:10096000002DDEDA0C2333600020F8BD23685B1B0A
:1009700018D40B2B03D92360E418256003E06368C7
:10098000A2420DD10B60300000F02CFE20000722A7
:100990000B30231D9043C21AE7D01B1AA350E4E783
:1009A0005360F0E722006468C3E70323C41C9C4340
:1009B000A042E2D0211A300000F0DEFA431CDCD164
:1009C000C8E7C0468400001088000010936810B586
:1009D000013B9360002B04DA9469A34207DB0A29E8
:1009E00005D01368581C10601970080010BD00F085
:1009F000D5FA0100F9E7F8B506000F001400D51884
:100A0000AC4201D1002007E021783A003000FFF726
:100A1000DDFF0134431CF3D1F8BD0000F0B5A1B0F7
:100A200007000D0003921E00002804D08369002BEC
:100A300001D100F0B3FC8C4B9D421CD17D686B6EE4
:100A4000DB0705D4AB899B0502D4A86D00F048FDF7
:100A5000AB891B0702D52B69002B1DD1290038005B
:100A600000F0F2FA002817D06B6EDB070DD50120DD
:100A7000404221B0F0BD7D4B9D4201D1BD68DEE713
:100A80007B4B9D42DBD1FD68D9E7AB899B05EED45A
:100A9000A86D00F026FDEAE7002308AC636120336F
:100AA00063761033A3760796039E3378002B01D02C
:100AB000252B4BD1039BF31A05930CD0039A2900E5
:100AC0003800FFF798FF431C00D1B5E06269059B31
:100AD0009446634463613378002B00D1ACE001227B
:100AE000731C039300235242626004A954325218CB
:100AF0002360E360A3601370A365039B052219784C
:100B00005C4800F05BFD039B5E1C002820D122683E
:100B1000D30604D5532304A95B18202119701307A9
:100B200004D5532304A95B182B211970039B1B7850
:100B30002A2B16D00021E368039E3278701C303ACD
:100B40008446092A4FD9002911D117E00136ACE7B4
:100B5000484B2268C01A0123834013432360039645
:100B6000CBE7079B191D1B680791002B01DB0B933B
:100B700004E05B42E36002231343236033782E2BAF
:100B80000AD173782A2B37D1079B02361A1D1B68AE
:100B90000792002B2DDB099331780322364800F0B1
:100BA0000DFD002807D0344B2268C01A4023834033
:100BB0001343013623603178731C06222F480393B8
:100BC000217600F0FBFC002845D02D4B002B27D1CF
:100BD0000722079B07339343083307936369049AFB
:100BE0009B18636160E70A214B4366469B180939ED
:100BF000A3E701235B42CEE700231A0001366360BE
:100C00003178701C30398446092903D9002BC3D0B0
:100C10000992C1E70A235A4366465218093BEFE797
:100C200007AB00932A00174B2100380000E000BFFB
:100C30000490049B0133D1D16B6EDB0705D4AB89E3
:100C40009B0502D4A86D00F04CFCAB895B0600D577
:100C50000DE70D980DE707AB00932A00094B210023
:100C6000380000F07FF8E3E7E8190000081A0000F8
:100C7000C819000093190000991900009D1900007F
:100C800000000000F7090000F7B5150001938A681D
:100C90000B6900900C00934200DA130022002B60D5
:100CA00043321278002A01D001332B6023689B065F
:100CB00002D52B6802332B60062723681F4027D0FC
:100CC000230043331B785A1E93412268920630D486
:100CD0002200019943320098089EB047431C25D05A
:100CE000062320682A68E16803400025042B03D10D
:100CF0008D1AEB43DB171D40A3682269934201DD87
:100D00009B1AED180027BD4220D1002010E00137CA
:100D1000E3682A689B1ABB42D2DD22000123193204
:100D200001990098089EB047431CF0D10120404231
:100D3000FEBD3020E1184331087021005A1C4531B6
:100D40000978A218433202331170C1E7220001234F
:100D50001A3201990098089EB047431CE6D001372B
:100D6000D1E70000F0B58BB006920A00433207933A
:100D7000059004920A7E0C00109B6E2A00D1AFE011
:100D800020D8632A35D008D8002A00D1B5E0582AE7
:100D900051D026004236327032E0642A01D0692AEE
:100DA000F7D1196820680A1D05062BD50D681A6051
:100DB000002D03DA2D23049A6D4213706C4B0A2721
:100DC000039352E0732A00D19BE008D86F2A1FD00A
:100DD000702ADED1202209680A43226003E0752AC6
:100DE00016D0782AD5D12200782145321170614A77
:100DF00024E026001A684236111D1960136833700A
:100E000001238CE00D681A604106D1D52DB2CFE7E1
:100E100019682568081D18602E0601D50D6803E0C5
:100E20006D06FBD50D68ADB2514B0A2703936F2AAF
:100E300017D1082715E045310A704D4A03921A6808
:100E4000216820CA1A60080644D5CB0702D52023A2
:100E5000194321601027002D03D1202322689A43D3
:100E600022602300002243331A706368A360002BC2
:100E700003DB0422216891432160002D02D1049EEE
:100E8000002B0AD0049E39002800FFF7F1FA039BDB
:100E9000013E5B5C3370AF4220D9082F09D1236833
:100EA000DB0706D563682269934202DC3023013EEA
:100EB0003370049B9B1B2361079B09AA00932100AD
:100EC000069B0598FFF7E0FE431C2DD10120404210
:100ED0000BB0F0BD4806B8D5ADB2B6E70500D2E715
:100EE0001A680D68101D4969186013682E0601D52F
:100EF000196002E06D06FBD519800023049E236172
:100F0000DAE71A68111D196016680021626830005E
:100F100000F054FB002801D0801B606063682361EF
:100F20000023049A1370C7E72369320006990598D5
:100F3000079DA847431CC9D023689B0715D4099B6C
:100F4000E0689842C4DA1800C2E72200012319328F
:100F500006990598079EB047431CB7D00135E36852
:100F6000099A9B1AAB42F0DCE9E70025F7E7C04697
:100F7000A4190000B5190000002370B5064C050047
:100F80000800236000F076FC431C03D12368002B8B
:100F900000D02B6070BDC0469C000010F8B5050065
:100FA0000E001400002804D08369002B01D100F04A
:100FB000F5F9224B9C422ED16C68A369A360A389EA
:100FC0001B0732D52369002B2FD023682269F7B283
:100FD000981A6369F6B2834205DC2100280000F00C
:100FE0003BF9002827D1A3680130013BA3602368A7
:100FF0005A1C22601F706369834204D0A389DB07F7
:1010000007D50A2E05D12100280000F025F9002877
:1010100011D13000F8BD0A4B9C4201D1AC68CCE73D
:10102000084B9C42C9D1EC68C7E72100280000F0BA
:101030000BF80028C9D001267642EAE7E81900003B
:10104000081A0000C8190000364B70B51D6806006C
:101050000C00002D05D0AB69002B02D1280000F058
:101060009DF9314B9C420FD16C680C23E25E93B228
:1010700019072DD4D90611D4092301203360373341
:101080001343A381404270BD284B9C4201D1AC6800
:10109000EBE7274B9C42E8D1EC68E6E75B0713D50A
:1010A000616B002908D023004433994202D03000FC
:1010B000FFF7E4FB002363632422A3899343A38106
:1010C00000236360236923600823A2891343A3815B
:1010D0002369002B0BD1A0218022A38989009200D3
:1010E0000B40934203D02100300000F023FA01238B
:1010F000A289134011D00023A36063695B42A361FE
:10110000002023698342BED10C23E25E1306BAD5C8
:1011100040231343A3810138B5E7920700D46369E4
:10112000A360EDE700000010E8190000081A0000B5
:10113000C819000010B5062000F086FA012000F062
:10114000AFFB0000F7B58A8905000C0013075DD4DA
:101150004B68002B04DC0B6C002B01DC0020FEBD77
:10116000E76A002FFAD000232E682B6080235B01F2
:101170001A4034D0606DA3895B0706D56368C01A36
:10118000636B002B01D0236CC01A0200216A00237C
:101190002800E76AB847A189431C06D12B681D2B9C
:1011A00031D82C4ADA40D3072DD500236360236958
:1011B0002360CB0405D5431C02D12B68002B00D142
:1011C0006065616B2E600029C8D0230044339942CA
:1011D00002D02800FFF752FB00206063BFE7012325
:1011E000216A2800B847431CC5D12B68002BC2D008
:1011F0001D2B01D0162B01D12E60AFE74023A28911
:101200001343A381ABE740230B43FAE70F69002F99
:10121000A4D00B680F60DB1B01930023920700D161
:101220004B69A360019B002B00DC97E7019B3A0010
:10123000216A2800A66AB047002806DC4023012066
:10124000A28940421343A38189E7019B3F181B1ADF
:101250000193E7E7010040200B6970B505000C0021
:10126000002B02D10025280070BD002804D083691E
:10127000002B01D100F092F8144B9C421BD16C68FA
:101280000C22A35E002BEDD0626ED20704D49B0526
:1012900002D4A06D00F024F928002100FFF752FFCE
:1012A000636E0500DB07DED4A3899B05DBD4A06D4C
:1012B00000F017F9D7E7064B9C4201D1AC68DFE795
:1012C000044B9C42DCD1EC68DAE7C046E819000028
:1012D000081A0000C8190000002310B504000360BC
:1012E0004360836081814366C2810361436183619E
:1012F000190008225C30FFF7FBF8054B246263629B
:10130000044BA362044BE362044B236310BDC0464D
:1013100089160000B1160000E9160000151700003C
:1013200010B5024900F0BAF810BDC04659120000CD
:1013300070B568254A1E55430E0029007431FFF729
:10134000E7FA041E08D000212A00016046600C3034
:10135000A0606832FFF7CCF8200070BD10B50248DD
:1013600000F0BEF810BDC0469800001010B502484D
:1013700000F0B7F810BDC0469800001010B5024844
:1013800000F0AEF810BDC0469300001010B5024842
:1013900000F0A7F810BDC0469300001013B504007C
:1013A000FFF7ECFFA369002B02D0FFF7EFFF13BD9F
:1013B000A364E3642365134B134A1B68A262019381
:1013C000A34201D10123A361200000F01FF8606057
:1013D000200000F01BF8A060200000F017F80022A9
:1013E000E06004216068FFF777FF01220921A0680F
:1013F000FFF772FF02221221E068FFF76DFF012361
:10140000A361D2E70019000021130000F8B507001E
:10141000FFF7A4FF1F4B1E68B369002B02D13000F9
:10142000FFF7BCFF4836B4687368013B04D53368E6
:10143000002B22D03668F6E70C22A55E002D1AD1CB
:101440002000154B5830E360656600F048F8FFF760
:101450008DFF20002560A560656025616561A5613F
:10146000082229005C30FFF743F86563A563A56493
:10147000E5642000F8BD6834D7E704213800FFF7A1
:1014800057FF041E3060D5D1FFF770FF0C233B607F
:10149000EFE7C046001900000100FFFFF7B50400A8
:1014A0000700002601914834002C01D13000FEBD18
:1014B0006368A5680093009B013B009301D52468F5
:1014C000F2E7AB89012B08D90E22AB5E013304D0C1
:1014D00029003800019B984706436835EBE77047C1
:1014E0007047704770B50E001D000E23C95E96B0A0
:1014F0001400002907DA00232B60B3891B0611D4DE
:101500008023DB000FE06A4600F030F90028F2DBB0
:10151000F022019B12021340054A9B185A42534184
:101520002B60EDE740230020236016B070BDC0465D
:1015300000E0FFFFF7B502268B8905000C0033425F
:1015400006D0230047332360236101236361F7BD85
:1015500001AB6A46FFF7C6FF009907002800FFF7B6
:10156000D7F9002808D10C22A35E9A05EFD40322F4
:1015700093431E43A681E4E70F4BAB628023A2890D
:1015800020601343A381009B20616361019B002BBA
:101590000DD00E23E15E280000F0FAF8002806D0F6
:1015A0000322A38993431A0001231343A381A08933
:1015B0003843A081CBE7C04621130000C9B282188E
:1015C000904201D10020704703788B42FBD001305C
:1015D000F6E7000010B50248FFF782FF10BDC046D5
:1015E0009400001010B50248FFF77BFF10BDC04605
:1015F0009400001070B504000D001F2904D91623B3
:1016000003600120404270BD436C002B04D08A006F
:101610009B181A68002A08D1200000F031F82A002F
:101620000100200000F01AF8EDE70020012AEAD0BE
:10163000511C03D1162301302360E4E70024280065
:101640001C6090472000DEE710B5034B01001868CE
:10165000FFF7D0FF10BDC04600000010002370B59A
:10166000064C050008001100236000F0EBF8431C55
:1016700003D12368002B00D02B6070BD9C000010AC
:1016800010B500F0CFF810BD70B50C000E25495F05
:1016900000F0A4F8002803DB636D1B18636570BDC0
:1016A000A389024A1340A381F9E7C046FFEFFFFF79
:1016B000F8B51F008B8905000C001600DB0505D569
:1016C0000E23C95E0022022300F074F8A389054AA4
:1016D00028001340A38132000E23E15E3B0000F09E
:1016E0001FF8F8BDFFEFFFFF70B50C000E25495F36
:1016F00000F060F8A389421C03D1054A1340A3817E
:1017000070BD802252011343A3816065F8E7C04693
:10171000FFEFFFFF10B50E23C95E00F015F810BDF6
:1017200070B50500080011000022064C22601A0066
:1017300000F0AEF8431C03D12368002B00D02B60CF
:1017400070BDC0469C000010002370B5064C05001B
:101750000800236000F056F8431C03D12368002BD7
:1017600000D02B6070BDC0469C000010002370B5F7
:10177000064C050008001100236000F04BF8431CE4
:1017800003D12368002B00D02B6070BD9C0000109B
:10179000002370B5064C05000800236000F04AF8ED
:1017A000431C03D12368002B00D02B6070BDC046C2
:1017B0009C00001070B50500080011000022064CC6
:1017C00022601A0000F046F8431C03D12368002B66
:1017D00000D02B6070BDC0469C00001070B50500A5
:1017E000080011000022064C22601A0000F03AF8AE
:1017F000431C03D12368002B00D02B6070BDC04672
:101800009C00001058220120014B40421A60704792
:101810009C00001058220120014B40421A60704782
:101820009C00001058220120014B40421A60704772
:101830009C0000105822024B00201A607047C046DE
:101840009C00001058220120014B40421A60704752
:101850009C00001058220120014B40421A60704742
:101860009C00001058220120014B40421A60704732
:101870009C000010044A1368002B03D01818106055
:1018800018007047014BF9E78C000010A000001011
:1018900058220120014B40421A6070479C00001002
:1018A000FEE7C046706F7274203C2041525241598D
:1018B0005F53495A4528735F6770696F436C6F6364
:1018C0006B4E616D65290000536F757263652F66FD
:1018D000736C5F6770696F2E6300000062697450FB
:1018E0006F73203C2033327500000000536F757217
:1018F00063652F66736C5F72657365742E63000099
:10190000040000100600140006000000140000008F
:101910004750494F5F506F7274496E697400000000
:1019200052455345545F53657450657269706865DC
:1019300072616C5265736574000000005245534536
:10194000545F436C6561725065726970686572615D
:101950006C5265736574002C2066756E6374696FD4
:101960006E3A2000617373657274696F6E20222570
:101970007322206661696C65643A2066696C652033
:10198000222573222C206C696E6520256425732521
:10199000730A00232D302B2000686C4C00656667AD
:1019A00045464700303132333435363738394142D5
:1019B00043444546003031323334353637383961A7
:1019C0006263646566000000000000000000000023
:1019D0000000000000000000000000000000000007
:1019E00000000000000000000000000000000000F7
:1019F00000000000000000000000000000000000E7
:101A000000000000000000000000000000000000D6
:101A100000000000000000000000000000000000C6
:101A20000000000000000000F8B5C046F8BC08BC8B
:101A30009E467047F8B5C046F8BC08BC9E46704745
:081A400048E7FF7F01000000F0
:041A48006901000030
:041A4C004101000054
:101A50000400001000000000E8190000081A00004F
:101A6000C819000000000000000000000000000095
:101A70000000000000000000000000000000000066
:101A80000000000000000000000000000000000056
:101A90000000000000000000000000000000000046
:101AA0000000000000000000000000000000000036
:081AB00000000000001BB7005C
:0400000300000201F6
:00000001FF
